:020000020000FC
:0200000025C019
:0200080007C02F
:1000160004C038D0002411241895020C131C8894AF
:10002600189578940CE00EBD00E409BF09E00ABDFE
:100036000DE30BBD00E20BBF01E000BD0EE107BB07
:100046000FE701BB08954ED001E0202E3324E9DFEF
:10005600052D12E018BB3ED002BB4ED0062D14E093
:1000660018BB38D002BB48D0072D18E018BB32D0D9
:1000760002BB42D0082D10E118BB2CD002BB3CD0ED
:10008600E7CF1895E8EEF3E00E161F0620F00E1ADD
:100096001F0AD395F9CF5D2EDD27E4E6F0E00E16B4
:1000A6001F0620F00E1A1F0AD395F9CF6D2EDD27F5
:1000B600EAE0F0E00E161F0620F00E1A1F0AD3958E
:1000C600F9CF7D2EDD27802C08953F065B4F666DA8
:1000D6007D077F6FDD27E0EDF0E0E00FFD1F049167
:1000E60008950895EEE2F9E0EA9509F0FDCFFA9554
:1000F60011F00AF0F9CF08950F931F9305E010E071
:100106000DD0A8948894020911F008F0F9CFA894AC
:1001160012190AF0F6CF1F910F9108955F934F932E
:100126004A95000009F0FCCF5A950AF0F9CF4F9195
:060136005F91A8940895FA
:00000001FF
