:020000020000FC
:0200000022C01C
:0200080012C024
:1000160000C00F930FB70F937724060C171C889414
:100026000F910FBF0F9118950F931F932F933F9327
:1000360033D0002411243F912F911F910F911895D1
:1000460001E0602E00E20BBF01E000BD0CE00EBD3A
:1000560000E409BF0DE30BBD09E00ABD0FE701BBD4
:100066000EE107BB789452E058BB022D49D002BB83
:1000760052D054E058BB032D43D002BB4CD058E0BD
:1000860058BB042D3DD002BB46D050E158BB052DD0
:1000960037D002BB40D0E7CF6F937F938F939F9368
:1000A600002D112D28EE33E01AD06D2FDD2724E622
:1000B60030E015D07D2FDD272AE030E010D08D2FDF
:1000C600DD2721E030E00BD09D2FDD27262E372EB1
:1000D600482E592E9F918F917F916F9108958F93FE
:1000E6009F930217130720F0021B130BD395F9CF2A
:1000F6009F918F9108953F065B4F666D7D07FF6F59
:10010600EF93FF93ECEFF0E07724E00FF71D0491F7
:10011600FF91EF9108958F939F9385E090E005D02E
:100126000197E9F79F918F9108958F939F9380EDA3
:0C01360097E00197F1F79F918F910895D9
:00000001FF
