:020000020000FC
:0200000006C038
:1000080000C0A394189500E80FBF00E409BF0CE0F6
:100018000EBD04E60ABD00E00BBD45E356E021E055
:10002800422E30E0332405E010E000936000109386
:1000380061007FE7AEE171BBA7BBDD27CC27BB27FB
:1000480088278894040C131C0092620010926300A5
:100058006DD042D0B92F10E133D0B2BB18BB13D04A
:10006800B82F18E02DD0B2BB18BB0DD0B72F14E0B5
:1000780027D0B2BB18BB07D0B62F12E021D0B2BB35
:1000880018BB01D0DECF00916000109161000BD049
:10009800A8948894040911F008F0F9CFA8941419C9
:1000A8000AF0F6CF08955F934F934A95000009F040
:1000B800FCCF5A950AF0F9CF4F915F91A894089513
:1000C8003324E6EDF0E0EB0FF31DB49108953F06FD
:1000D8005B4F666D7D077F6FDD2728EE33E00216E4
:1000E800130628F000C0021A130AD40DF8CF6D2F9A
:1000F80024E630E0DD270216130628F000C0021AB5
:10010800130AD40DF8CF7D2F2AE030E0DD27021640
:10011800130628F000C0021A130AD40DF8CF8D2F49
:10012800902D0090620010906300089520E137E25E
:100138000216130620F000C0021A130AF9CF089518
:00000001FF
