:020000020000FC
:0200000013C02B
:020008000BC02B
:1000160000C0040C131C8894189564D00024112485
:10002600189500E80FBF0CE00EBD0DE30BBD09E00F
:100036000ABD00E409BF002700E20BBF01E000BDD6
:1000460045E356E021E0422E332405E010E07FE749
:10005600AEE171BBA7BBCC277727B82D38D0B2BB92
:1000660020E128BB17D08894B72D31D0B2BB28E049
:1000760028BB10D08894B62D2AD0B2BB24E028BB6A
:1000860009D08894B52D23D0B2BB22E028BB02D07C
:100096008894E3CF0F931F930DD0A89488940409F6
:1000A60011F008F0F9CFA89414190AF0F6CF1F91B1
:1000B6000F9108955F934F934A95000009F0FCCF86
:1000C6005A950AF0F9CF4F915F91A8940895E0EE02
:1000D600F0E0EB0FF31DB49108953F065B4F666D9C
:1000E6007D077F6FDD270F921F9228EE33E0021601
:1000F600130628F000C0021A130AD40DF8CF5D2E9D
:1001060024E630E0DD270216130628F000C0021AA6
:10011600130AD40DF8CF6D2E2AE030E0DD27021643
:10012600130628F000C0021A130AD40DF8CF7D2E4C
:10013600802C1F900F90089520E137E202161306D7
:0C01460020F000C0021A130AF9CF08953F
:00000001FF
