:020000020000FC
:0200000013C02B
:020008000BC02B
:1000160000C0040C131C8894189560D00024112489
:10002600189500E80FBF0CE00EBD0DE30BBD09E00F
:100036000ABD00E409BF002700E20BBF01E000BDD6
:1000460045E356E021E0422E332405E010E07FE749
:10005600AEE171BBA7BBCC27772720E1B82D33D003
:10006600B2BB28BB13D028E0B72D2DD0B2BB28BB1E
:100076000DD024E0B62D27D0B2BB28BB07D022E096
:10008600B52D21D0B2BB28BB01D0E7CF0F931F936C
:100096000DD0A8948894040911F008F0F9CFA8941B
:1000A60014190AF0F6CF1F910F9108955F934F939D
:1000B6004A95000009F0FCCF5A950AF0F9CF4F9106
:1000C6005F91A8940895E8EDF0E0EB0FF31DB4916D
:1000D60008953F065B4F666D7D077F6FDD270F92A4
:1000E6001F9228EE33E00216130628F000C0021A0B
:1000F600130AD40DF8CF5D2E24E630E0DD27021674
:10010600130628F000C0021A130AD40DF8CF6D2E7C
:100116002AE030E0DD270216130628F000C0021A96
:10012600130AD40DF8CF7D2E802C1F900F900895C2
:1001360020E137E20216130620F000C0021A130A65
:04014600F9CF089550
:00000001FF
