:020000020000FC
:1000000045E356E021E005E010E000936000109326
:1000100061007FE7AEE10FE3202E06E0302E0BE516
:10002000402E0FE4502E71BBA7BB18E042BA18BB9C
:100030000DD014E032BA18BB09D012E022BA18BBB6
:1000400005D010E152BA18BB01D0EFCF009160008B
:10005000109161000BD0A8948894020B11F008F065
:10006000F9CFA894121B0AF0F6CF08955F934F932F
:100070004A95000009F0FCCF5A950AF0F9CF4F914C
:060080005F91A8940895B1
:00000001FF
