:020000020000FC
:0200000016C028
:1000080000C0413041F01FB66F915F917F938F938D
:1000180041E02FBE07C02FB68F917F915F936F93FA
:1000280044271FBE18950CE00EBD00EC09BF00E088
:100038000BBD04E60ABD78940AE007BB0FE701BBD5
:100048001FE312BB442701E05CE260E07BE380E051
:1000580012E028B3212728BB0AE00394C0E0DDE7BB
:100068000A952197F1F798940030D1F7F1CF14E071
:1000780028B3212728BB35E01394A0E0BDE73A95C3
:0C0088001197F1F788943030D1F7F1CFD8
:00000001FF
