:020000020000FC
:0200000018C026
:1000080000C02FB6413041F0022C41E06F915F9162
:100018007F938F931FBE08C09894122C8F917F9165
:100028005F936F9344270FBE189500EC09BF09E052
:100038000EBD00E00BBD04E60ABD442706E007BB81
:100048000FE701BB0FE302BB78945DE260E07BE35E
:1000580080E018B322E0122718BB32E0C0E0DDE7E9
:100068002197F1F798943A953030D1F7F2CFA8B3A9
:1000780024E0A227A8BB94E0E0E0FDE73197F1F780
:0C00880098949A959030D1F7F2CF18951B
:00000001FF
