:020000020000FC
:0200000014C02A
:1000080000C043954170413039F42F901F903F92C2
:100018004F920000000018954F903F901F922F922A
:1000280018951EE117BB1FEF11BB1FEF12BB1CE099
:100038001EBD10E01FBD10E01BBD14E01ABD10EC82
:1000480019BF789400E0402E0F930FE3302E0F93E2
:10005800442788279927AA27BB27CC27DD2701967D
:10006800993131F48827992712E028B3212728BB32
:10007800C395F1F7F4CF1196BA3031F4BB27CC27EA
:0E00880014E028B3212728BBD395F1F7F4CF5D
:00000001FF
